:02000000CE2808
:10000800FF00030E8301A9000A08AA008A017008EC
:10001800A0000B1D1628F8308100A30A0319A40AB2
:10002800FB308B052008F0002A088A00290E83007F
:06003800FF0E7F0E09001F
:0E003E008312031328088A0027088200080096
:10004C0083120313A301A40180302406F000803036
:10005C002C067002031D34282B08230203183728A2
:04006C002A28080036
:0A0070003F308312031388050800D7
:10007A00013083120313A1000030A2000230A50050
:10008A000030A6004430860580302606F000803015
:10009A0022067002031D532821082502031C5F282B
:1000AA0022308604D230AB00AC012620A10A031903
:0A00BA00A20A4928C9308605080093
:0800C4003820C9308605080050
:1000CC001F208A110A128000840AA70A0319A80AA1
:0800DC00F003031D6628080073
:1000E400013083120313A1000030A2000230A500E6
:1000F4000030A600C930860580302606F000803026
:1001040022067002031D882821082502031C952855
:10011400243086044030AB000130AC002620A10A14
:0C0124000319A20A7E28C93086050800D5
:10013000013083120313A1000030A2000230A50099
:100140000030A600C930860580302606F0008030D9
:1001500022067002031DAE2821082502031CBA28BE
:1001600012308604F530AB00AC012620A10A031939
:0A017000A20AA428C9308605080081
:10017A00831603138601FF308700880187308100C8
:10018A00F83083128100E0308B00870186018801F4
:02019A0008005B
:10019C0083120313A101A201BD20DC30AB0005309A
:1001AC00AC002620871DDB28FD28071DE1288718B9
:1001BC00E1283D20FC280719F3288718F328622032
:1001CC007220EE30AB000230AC0026207220EE30F4
:1001DC00AB000230AC002620FC28871CFC289820A1
:1001EC00EE30AB000230AC0026203D20D328FD2899
:02400E004A2F37
:00000001FF
